{
  "_format": "hh-sol-artifact-1",
  "contractName": "CoinBlogContract",
  "sourceName": "Contracts/CoinBlogContract.sol",
  "abi": [
    {
      "stateMutability": "payable",
      "type": "fallback"
    },
    {
      "inputs": [
        {
          "internalType": "address payable",
          "name": "author",
          "type": "address"
        },
        {
          "internalType": "uint256",
          "name": "amount",
          "type": "uint256"
        }
      ],
      "name": "donate",
      "outputs": [],
      "stateMutability": "payable",
      "type": "function"
    },
    {
      "stateMutability": "payable",
      "type": "receive"
    }
  ],
  "bytecode": "0x608060405234801561001057600080fd5b506102fc806100206000396000f3fe6080604052600436106100225760003560e01c8063e69d849d1461009d57610062565b36610062576040517f08c379a000000000000000000000000000000000000000000000000000000000815260040161005990610161565b60405180910390fd5b6040517f08c379a0000000000000000000000000000000000000000000000000000000008152600401610094906101cd565b60405180910390fd5b6100b760048036038101906100b29190610286565b6100b9565b005b8173ffffffffffffffffffffffffffffffffffffffff166108fc829081150290604051600060405180830381858888f193505050501580156100ff573d6000803e3d6000fd5b505050565b600082825260208201905092915050565b7f52656365697665206973206e6f742070617961626c6500000000000000000000600082015250565b600061014b601683610104565b915061015682610115565b602082019050919050565b6000602082019050818103600083015261017a8161013e565b9050919050565b7f46616c6c6261636b206973206e6f742070617961626c65000000000000000000600082015250565b60006101b7601783610104565b91506101c282610181565b602082019050919050565b600060208201905081810360008301526101e6816101aa565b9050919050565b600080fd5b600073ffffffffffffffffffffffffffffffffffffffff82169050919050565b600061021d826101f2565b9050919050565b61022d81610212565b811461023857600080fd5b50565b60008135905061024a81610224565b92915050565b6000819050919050565b61026381610250565b811461026e57600080fd5b50565b6000813590506102808161025a565b92915050565b6000806040838503121561029d5761029c6101ed565b5b60006102ab8582860161023b565b92505060206102bc85828601610271565b915050925092905056fea2646970667358221220bf6450cd8b404e84da4b8be5793bfb16bd2bb37c7a143631d48a5f64e54752ce64736f6c63430008180033",
  "linkReferences": {},
  "deployedLinkReferences": {}
}